{"abi":[{"type":"constructor","inputs":[{"name":"_name","type":"string","internalType":"string"},{"name":"_symbol","type":"string","internalType":"string"},{"name":"_decimals","type":"uint8","internalType":"uint8"},{"name":"_totalSupply","type":"uint256","internalType":"uint256"}],"stateMutability":"nonpayable"},{"type":"receive","stateMutability":"payable"},{"type":"function","name":"allowance","inputs":[{"name":"","type":"address","internalType":"address"},{"name":"","type":"address","internalType":"address"}],"outputs":[{"name":"","type":"uint256","internalType":"uint256"}],"stateMutability":"view"},{"type":"function","name":"approve","inputs":[{"name":"spender","type":"address","internalType":"address"},{"name":"value","type":"uint256","internalType":"uint256"}],"outputs":[{"name":"","type":"bool","internalType":"bool"}],"stateMutability":"nonpayable"},{"type":"function","name":"balanceOf","inputs":[{"name":"","type":"address","internalType":"address"}],"outputs":[{"name":"","type":"uint256","internalType":"uint256"}],"stateMutability":"view"},{"type":"function","name":"burn","inputs":[{"name":"amount","type":"uint256","internalType":"uint256"}],"outputs":[],"stateMutability":"nonpayable"},{"type":"function","name":"decimals","inputs":[],"outputs":[{"name":"","type":"uint8","internalType":"uint8"}],"stateMutability":"view"},{"type":"function","name":"mint","inputs":[{"name":"to","type":"address","internalType":"address"},{"name":"amount","type":"uint256","internalType":"uint256"}],"outputs":[],"stateMutability":"nonpayable"},{"type":"function","name":"name","inputs":[],"outputs":[{"name":"","type":"string","internalType":"string"}],"stateMutability":"view"},{"type":"function","name":"symbol","inputs":[],"outputs":[{"name":"","type":"string","internalType":"string"}],"stateMutability":"view"},{"type":"function","name":"totalSupply","inputs":[],"outputs":[{"name":"","type":"uint256","internalType":"uint256"}],"stateMutability":"view"},{"type":"function","name":"transfer","inputs":[{"name":"to","type":"address","internalType":"address"},{"name":"value","type":"uint256","internalType":"uint256"}],"outputs":[{"name":"","type":"bool","internalType":"bool"}],"stateMutability":"nonpayable"},{"type":"function","name":"transferFrom","inputs":[{"name":"from","type":"address","internalType":"address"},{"name":"to","type":"address","internalType":"address"},{"name":"value","type":"uint256","internalType":"uint256"}],"outputs":[{"name":"","type":"bool","internalType":"bool"}],"stateMutability":"nonpayable"},{"type":"function","name":"withdraw","inputs":[],"outputs":[],"stateMutability":"nonpayable"},{"type":"event","name":"Approval","inputs":[{"name":"owner","type":"address","indexed":true,"internalType":"address"},{"name":"spender","type":"address","indexed":true,"internalType":"address"},{"name":"value","type":"uint256","indexed":false,"internalType":"uint256"}],"anonymous":false},{"type":"event","name":"Transfer","inputs":[{"name":"from","type":"address","indexed":true,"internalType":"address"},{"name":"to","type":"address","indexed":true,"internalType":"address"},{"name":"value","type":"uint256","indexed":false,"internalType":"uint256"}],"anonymous":false}],"bytecode":{"object":"0x608060405234801561000f575f80fd5b50604051611e6e380380611e6e833981810160405281019061003191906102f2565b835f908161003f9190610592565b50826001908161004f9190610592565b508160025f6101000a81548160ff021916908360ff16021790555081600a61007791906107bd565b816100829190610807565b60038190555060035460045f3373ffffffffffffffffffffffffffffffffffffffff1673ffffffffffffffffffffffffffffffffffffffff1681526020019081526020015f20819055503373ffffffffffffffffffffffffffffffffffffffff165f73ffffffffffffffffffffffffffffffffffffffff167fddf252ad1be2c89b69c2b068fc378daa952ba7f163c4a11628f55a4df523b3ef60035460405161012b9190610857565b60405180910390a350505050610870565b5f604051905090565b5f80fd5b5f80fd5b5f80fd5b5f80fd5b5f601f19601f8301169050919050565b7f4e487b71000000000000000000000000000000000000000000000000000000005f52604160045260245ffd5b61019b82610155565b810181811067ffffffffffffffff821117156101ba576101b9610165565b5b80604052505050565b5f6101cc61013c565b90506101d88282610192565b919050565b5f67ffffffffffffffff8211156101f7576101f6610165565b5b61020082610155565b9050602081019050919050565b8281835e5f83830152505050565b5f61022d610228846101dd565b6101c3565b90508281526020810184848401111561024957610248610151565b5b61025484828561020d565b509392505050565b5f82601f8301126102705761026f61014d565b5b815161028084826020860161021b565b91505092915050565b5f60ff82169050919050565b61029e81610289565b81146102a8575f80fd5b50565b5f815190506102b981610295565b92915050565b5f819050919050565b6102d1816102bf565b81146102db575f80fd5b50565b5f815190506102ec816102c8565b92915050565b5f805f806080858703121561030a57610309610145565b5b5f85015167ffffffffffffffff81111561032757610326610149565b5b6103338782880161025c565b945050602085015167ffffffffffffffff81111561035457610353610149565b5b6103608782880161025c565b9350506040610371878288016102ab565b9250506060610382878288016102de565b91505092959194509250565b5f81519050919050565b7f4e487b71000000000000000000000000000000000000000000000000000000005f52602260045260245ffd5b5f60028204905060018216806103dc57607f821691505b6020821081036103ef576103ee610398565b5b50919050565b5f819050815f5260205f209050919050565b5f6020601f8301049050919050565b5f82821b905092915050565b5f600883026104517fffffffffffffffffffffffffffffffffffffffffffffffffffffffffffffffff82610416565b61045b8683610416565b95508019841693508086168417925050509392505050565b5f819050919050565b5f61049661049161048c846102bf565b610473565b6102bf565b9050919050565b5f819050919050565b6104af8361047c565b6104c36104bb8261049d565b848454610422565b825550505050565b5f90565b6104d76104cb565b6104e28184846104a6565b505050565b5b81811015610505576104fa5f826104cf565b6001810190506104e8565b5050565b601f82111561054a5761051b816103f5565b61052484610407565b81016020851015610533578190505b61054761053f85610407565b8301826104e7565b50505b505050565b5f82821c905092915050565b5f61056a5f198460080261054f565b1980831691505092915050565b5f610582838361055b565b9150826002028217905092915050565b61059b8261038e565b67ffffffffffffffff8111156105b4576105b3610165565b5b6105be82546103c5565b6105c9828285610509565b5f60209050601f8311600181146105fa575f84156105e8578287015190505b6105f28582610577565b865550610659565b601f198416610608866103f5565b5f5b8281101561062f5784890151825560018201915060208501945060208101905061060a565b8683101561064c5784890151610648601f89168261055b565b8355505b6001600288020188555050505b505050505050565b7f4e487b71000000000000000000000000000000000000000000000000000000005f52601160045260245ffd5b5f8160011c9050919050565b5f808291508390505b60018511156106e3578086048111156106bf576106be610661565b5b60018516156106ce5780820291505b80810290506106dc8561068e565b94506106a3565b94509492505050565b5f826106fb57600190506107b6565b81610708575f90506107b6565b816001811461071e576002811461072857610757565b60019150506107b6565b60ff84111561073a57610739610661565b5b8360020a91508482111561075157610750610661565b5b506107b6565b5060208310610133831016604e8410600b841016171561078c5782820a90508381111561078757610786610661565b5b6107b6565b610799848484600161069a565b925090508184048111156107b0576107af610661565b5b81810290505b9392505050565b5f6107c7826102bf565b91506107d283610289565b92506107ff7fffffffffffffffffffffffffffffffffffffffffffffffffffffffffffffffff84846106ec565b905092915050565b5f610811826102bf565b915061081c836102bf565b925082820261082a816102bf565b9150828204841483151761084157610840610661565b5b5092915050565b610851816102bf565b82525050565b5f60208201905061086a5f830184610848565b92915050565b6115f18061087d5f395ff3fe6080604052600436106100aa575f3560e01c806340c10f191161006357806340c10f191461029157806342966c68146102b957806370a08231146102e157806395d89b411461031d578063a9059cbb14610347578063dd62ed3e1461038357610181565b806306fdde0314610185578063095ea7b3146101af57806318160ddd146101eb57806323b872dd14610215578063313ce567146102515780633ccfd60b1461027b57610181565b36610181573460045f3373ffffffffffffffffffffffffffffffffffffffff1673ffffffffffffffffffffffffffffffffffffffff1681526020019081526020015f205f8282546100fb9190610f16565b925050819055503460035f8282546101139190610f16565b925050819055503373ffffffffffffffffffffffffffffffffffffffff165f73ffffffffffffffffffffffffffffffffffffffff167fddf252ad1be2c89b69c2b068fc378daa952ba7f163c4a11628f55a4df523b3ef346040516101779190610f58565b60405180910390a3005b5f80fd5b348015610190575f80fd5b506101996103bf565b6040516101a69190610fe1565b60405180910390f35b3480156101ba575f80fd5b506101d560048036038101906101d09190611089565b61044a565b6040516101e291906110e1565b60405180910390f35b3480156101f6575f80fd5b506101ff610537565b60405161020c9190610f58565b60405180910390f35b348015610220575f80fd5b5061023b600480360381019061023691906110fa565b61053d565b60405161024891906110e1565b60405180910390f35b34801561025c575f80fd5b506102656107fd565b6040516102729190611165565b60405180910390f35b348015610286575f80fd5b5061028f61080f565b005b34801561029c575f80fd5b506102b760048036038101906102b29190611089565b610998565b005b3480156102c4575f80fd5b506102df60048036038101906102da919061117e565b610ada565b005b3480156102ec575f80fd5b50610307600480360381019061030291906111a9565b610c2d565b6040516103149190610f58565b60405180910390f35b348015610328575f80fd5b50610331610c42565b60405161033e9190610fe1565b60405180910390f35b348015610352575f80fd5b5061036d60048036038101906103689190611089565b610cce565b60405161037a91906110e1565b60405180910390f35b34801561038e575f80fd5b506103a960048036038101906103a491906111d4565b610ec0565b6040516103b69190610f58565b60405180910390f35b5f80546103cb9061123f565b80601f01602080910402602001604051908101604052809291908181526020018280546103f79061123f565b80156104425780601f1061041957610100808354040283529160200191610442565b820191905f5260205f20905b81548152906001019060200180831161042557829003601f168201915b505050505081565b5f8160055f3373ffffffffffffffffffffffffffffffffffffffff1673ffffffffffffffffffffffffffffffffffffffff1681526020019081526020015f205f8573ffffffffffffffffffffffffffffffffffffffff1673ffffffffffffffffffffffffffffffffffffffff1681526020019081526020015f20819055508273ffffffffffffffffffffffffffffffffffffffff163373ffffffffffffffffffffffffffffffffffffffff167f8c5be1e5ebec7d5bd14f71427d1e84f3dd0314c0f7b2291e5b200ac8c7c3b925846040516105259190610f58565b60405180910390a36001905092915050565b60035481565b5f8160045f8673ffffffffffffffffffffffffffffffffffffffff1673ffffffffffffffffffffffffffffffffffffffff1681526020019081526020015f205410156105be576040517f08c379a00000000000000000000000000000000000000000000000000000000081526004016105b5906112b9565b60405180910390fd5b8160055f8673ffffffffffffffffffffffffffffffffffffffff1673ffffffffffffffffffffffffffffffffffffffff1681526020019081526020015f205f3373ffffffffffffffffffffffffffffffffffffffff1673ffffffffffffffffffffffffffffffffffffffff1681526020019081526020015f20541015610679576040517f08c379a000000000000000000000000000000000000000000000000000000000815260040161067090611321565b60405180910390fd5b5f73ffffffffffffffffffffffffffffffffffffffff168373ffffffffffffffffffffffffffffffffffffffff16036106e7576040517f08c379a00000000000000000000000000000000000000000000000000000000081526004016106de90611389565b60405180910390fd5b8160045f8673ffffffffffffffffffffffffffffffffffffffff1673ffffffffffffffffffffffffffffffffffffffff1681526020019081526020015f205f82825461073391906113a7565b925050819055508160045f8573ffffffffffffffffffffffffffffffffffffffff1673ffffffffffffffffffffffffffffffffffffffff1681526020019081526020015f205f8282546107869190610f16565b925050819055508273ffffffffffffffffffffffffffffffffffffffff168473ffffffffffffffffffffffffffffffffffffffff167fddf252ad1be2c89b69c2b068fc378daa952ba7f163c4a11628f55a4df523b3ef846040516107ea9190610f58565b60405180910390a3600190509392505050565b60025f9054906101000a900460ff1681565b5f60045f3373ffffffffffffffffffffffffffffffffffffffff1673ffffffffffffffffffffffffffffffffffffffff1681526020019081526020015f205490505f8111610892576040517f08c379a000000000000000000000000000000000000000000000000000000000815260040161088990611424565b60405180910390fd5b5f3373ffffffffffffffffffffffffffffffffffffffff16826040516108b79061146f565b5f6040518083038185875af1925050503d805f81146108f1576040519150601f19603f3d011682016040523d82523d5f602084013e6108f6565b606091505b505090508061093a576040517f08c379a0000000000000000000000000000000000000000000000000000000008152600401610931906114cd565b60405180910390fd5b5f60045f3373ffffffffffffffffffffffffffffffffffffffff1673ffffffffffffffffffffffffffffffffffffffff1681526020019081526020015f20819055508160035f82825461098d91906113a7565b925050819055505050565b5f73ffffffffffffffffffffffffffffffffffffffff168273ffffffffffffffffffffffffffffffffffffffff1603610a06576040517f08c379a00000000000000000000000000000000000000000000000000000000081526004016109fd90611535565b60405180910390fd5b8060035f828254610a179190610f16565b925050819055508060045f8473ffffffffffffffffffffffffffffffffffffffff1673ffffffffffffffffffffffffffffffffffffffff1681526020019081526020015f205f828254610a6a9190610f16565b925050819055508173ffffffffffffffffffffffffffffffffffffffff165f73ffffffffffffffffffffffffffffffffffffffff167fddf252ad1be2c89b69c2b068fc378daa952ba7f163c4a11628f55a4df523b3ef83604051610ace9190610f58565b60405180910390a35050565b8060045f3373ffffffffffffffffffffffffffffffffffffffff1673ffffffffffffffffffffffffffffffffffffffff1681526020019081526020015f20541015610b5a576040517f08c379a0000000000000000000000000000000000000000000000000000000008152600401610b519061159d565b60405180910390fd5b8060045f3373ffffffffffffffffffffffffffffffffffffffff1673ffffffffffffffffffffffffffffffffffffffff1681526020019081526020015f205f828254610ba691906113a7565b925050819055508060035f828254610bbe91906113a7565b925050819055505f73ffffffffffffffffffffffffffffffffffffffff163373ffffffffffffffffffffffffffffffffffffffff167fddf252ad1be2c89b69c2b068fc378daa952ba7f163c4a11628f55a4df523b3ef83604051610c229190610f58565b60405180910390a350565b6004602052805f5260405f205f915090505481565b60018054610c4f9061123f565b80601f0160208091040260200160405190810160405280929190818152602001828054610c7b9061123f565b8015610cc65780601f10610c9d57610100808354040283529160200191610cc6565b820191905f5260205f20905b815481529060010190602001808311610ca957829003601f168201915b505050505081565b5f8160045f3373ffffffffffffffffffffffffffffffffffffffff1673ffffffffffffffffffffffffffffffffffffffff1681526020019081526020015f20541015610d4f576040517f08c379a0000000000000000000000000000000000000000000000000000000008152600401610d46906112b9565b60405180910390fd5b5f73ffffffffffffffffffffffffffffffffffffffff168373ffffffffffffffffffffffffffffffffffffffff1603610dbd576040517f08c379a0000000000000000000000000000000000000000000000000000000008152600401610db490611389565b60405180910390fd5b8160045f3373ffffffffffffffffffffffffffffffffffffffff1673ffffffffffffffffffffffffffffffffffffffff1681526020019081526020015f205f82825403925050819055508160045f8573ffffffffffffffffffffffffffffffffffffffff1673ffffffffffffffffffffffffffffffffffffffff1681526020019081526020015f205f82825401925050819055508273ffffffffffffffffffffffffffffffffffffffff163373ffffffffffffffffffffffffffffffffffffffff167fddf252ad1be2c89b69c2b068fc378daa952ba7f163c4a11628f55a4df523b3ef84604051610eae9190610f58565b60405180910390a36001905092915050565b6005602052815f5260405f20602052805f5260405f205f91509150505481565b5f819050919050565b7f4e487b71000000000000000000000000000000000000000000000000000000005f52601160045260245ffd5b5f610f2082610ee0565b9150610f2b83610ee0565b9250828201905080821115610f4357610f42610ee9565b5b92915050565b610f5281610ee0565b82525050565b5f602082019050610f6b5f830184610f49565b92915050565b5f81519050919050565b5f82825260208201905092915050565b8281835e5f83830152505050565b5f601f19601f8301169050919050565b5f610fb382610f71565b610fbd8185610f7b565b9350610fcd818560208601610f8b565b610fd681610f99565b840191505092915050565b5f6020820190508181035f830152610ff98184610fa9565b905092915050565b5f80fd5b5f73ffffffffffffffffffffffffffffffffffffffff82169050919050565b5f61102e82611005565b9050919050565b61103e81611024565b8114611048575f80fd5b50565b5f8135905061105981611035565b92915050565b61106881610ee0565b8114611072575f80fd5b50565b5f813590506110838161105f565b92915050565b5f806040838503121561109f5761109e611001565b5b5f6110ac8582860161104b565b92505060206110bd85828601611075565b9150509250929050565b5f8115159050919050565b6110db816110c7565b82525050565b5f6020820190506110f45f8301846110d2565b92915050565b5f805f6060848603121561111157611110611001565b5b5f61111e8682870161104b565b935050602061112f8682870161104b565b925050604061114086828701611075565b9150509250925092565b5f60ff82169050919050565b61115f8161114a565b82525050565b5f6020820190506111785f830184611156565b92915050565b5f6020828403121561119357611192611001565b5b5f6111a084828501611075565b91505092915050565b5f602082840312156111be576111bd611001565b5b5f6111cb8482850161104b565b91505092915050565b5f80604083850312156111ea576111e9611001565b5b5f6111f78582860161104b565b92505060206112088582860161104b565b9150509250929050565b7f4e487b71000000000000000000000000000000000000000000000000000000005f52602260045260245ffd5b5f600282049050600182168061125657607f821691505b60208210810361126957611268611212565b5b50919050565b7f496e73756666696369656e742062616c616e63650000000000000000000000005f82015250565b5f6112a3601483610f7b565b91506112ae8261126f565b602082019050919050565b5f6020820190508181035f8301526112d081611297565b9050919050565b7f496e73756666696369656e7420616c6c6f77616e6365000000000000000000005f82015250565b5f61130b601683610f7b565b9150611316826112d7565b602082019050919050565b5f6020820190508181035f830152611338816112ff565b9050919050565b7f5472616e7366657220746f207a65726f206164647265737300000000000000005f82015250565b5f611373601883610f7b565b915061137e8261133f565b602082019050919050565b5f6020820190508181035f8301526113a081611367565b9050919050565b5f6113b182610ee0565b91506113bc83610ee0565b92508282039050818111156113d4576113d3610ee9565b5b92915050565b7f4e6f2062616c616e636520746f207769746864726177000000000000000000005f82015250565b5f61140e601683610f7b565b9150611419826113da565b602082019050919050565b5f6020820190508181035f83015261143b81611402565b9050919050565b5f81905092915050565b50565b5f61145a5f83611442565b91506114658261144c565b5f82019050919050565b5f6114798261144f565b9150819050919050565b7f5472616e73666572206661696c656400000000000000000000000000000000005f82015250565b5f6114b7600f83610f7b565b91506114c282611483565b602082019050919050565b5f6020820190508181035f8301526114e4816114ab565b9050919050565b7f4d696e7420746f207a65726f20616464726573730000000000000000000000005f82015250565b5f61151f601483610f7b565b915061152a826114eb565b602082019050919050565b5f6020820190508181035f83015261154c81611513565b9050919050565b7f496e73756666696369656e742062616c616e636520746f206275726e000000005f82015250565b5f611587601c83610f7b565b915061159282611553565b602082019050919050565b5f6020820190508181035f8301526115b48161157b565b905091905056fea26469706673582212201326dfe75bb84f3c6f9bec0c3e27bd28853427f0d7f199e40008547ad85ddc5164736f6c634300081a0033","linkReferences":{}},"methodIdentifiers":{"allowance(address,address)":"dd62ed3e","approve(address,uint256)":"095ea7b3","balanceOf(address)":"70a08231","burn(uint256)":"42966c68","decimals()":"313ce567","mint(address,uint256)":"40c10f19","name()":"06fdde03","symbol()":"95d89b41","totalSupply()":"18160ddd","transfer(address,uint256)":"a9059cbb","transferFrom(address,address,uint256)":"23b872dd","withdraw()":"3ccfd60b"},"id":19}